{"abi":[{"inputs":[],"stateMutability":"nonpayable","type":"constructor"},{"anonymous":false,"inputs":[{"indexed":false,"internalType":"address","name":"winner","type":"address"},{"indexed":false,"internalType":"uint256","name":"value","type":"uint256"}],"name":"auctionEnding","type":"event"},{"anonymous":false,"inputs":[{"indexed":false,"internalType":"address","name":"","type":"address"},{"indexed":false,"internalType":"uint256","name":"","type":"uint256"}],"name":"eventHigher","type":"event"},{"inputs":[],"name":"Bid","outputs":[],"stateMutability":"payable","type":"function"},{"inputs":[],"name":"Tranferfunds","outputs":[],"stateMutability":"payable","type":"function"},{"inputs":[],"name":"hb","outputs":[{"internalType":"address","name":"addressHigh","type":"address"},{"internalType":"uint256","name":"amountHigh","type":"uint256"}],"stateMutability":"view","type":"function"},{"inputs":[],"name":"maxTime","outputs":[{"internalType":"uint256","name":"","type":"uint256"}],"stateMutability":"view","type":"function"},{"inputs":[],"name":"owner","outputs":[{"internalType":"address","name":"","type":"address"}],"stateMutability":"view","type":"function"},{"inputs":[],"name":"restartBid","outputs":[],"stateMutability":"nonpayable","type":"function"}],"devdoc":{"kind":"dev","methods":{},"version":1},"evm":{"assembly":"    /* \"Bid.sol\":391:2336  contract Challenge {... */\n  mstore(0x40, 0x80)\n    /* \"Bid.sol\":697:796  constructor() {... */\n  callvalue\n  dup1\n  iszero\n  tag_1\n  jumpi\n  0x00\n  dup1\n  revert\ntag_1:\n  pop\n    /* \"Bid.sol\":750:759  2 minutes */\n  0x78\n    /* \"Bid.sol\":732:747  block.timestamp */\n  timestamp\n    /* \"Bid.sol\":732:759  block.timestamp + 2 minutes */\n  tag_4\n  swap2\n  swap1\n  tag_5\n  jump\t// in\ntag_4:\n    /* \"Bid.sol\":722:729  maxTime */\n  0x01\n    /* \"Bid.sol\":722:759  maxTime = block.timestamp + 2 minutes */\n  dup2\n  swap1\n  sstore\n  pop\n    /* \"Bid.sol\":778:788  msg.sender */\n  caller\n    /* \"Bid.sol\":770:775  owner */\n  0x02\n  0x00\n    /* \"Bid.sol\":770:788  owner = msg.sender */\n  0x0100\n  exp\n  dup2\n  sload\n  dup2\n  0xffffffffffffffffffffffffffffffffffffffff\n  mul\n  not\n  and\n  swap1\n  dup4\n  0xffffffffffffffffffffffffffffffffffffffff\n  and\n  mul\n  or\n  swap1\n  sstore\n  pop\n    /* \"Bid.sol\":391:2336  contract Challenge {... */\n  jump(tag_6)\n    /* \"#utility.yul\":7:84   */\ntag_7:\n    /* \"#utility.yul\":44:51   */\n  0x00\n    /* \"#utility.yul\":73:78   */\n  dup2\n    /* \"#utility.yul\":62:78   */\n  swap1\n  pop\n    /* \"#utility.yul\":7:84   */\n  swap2\n  swap1\n  pop\n  jump\t// out\n    /* \"#utility.yul\":90:270   */\ntag_8:\n    /* \"#utility.yul\":138:215   */\n  0x4e487b7100000000000000000000000000000000000000000000000000000000\n    /* \"#utility.yul\":135:136   */\n  0x00\n    /* \"#utility.yul\":128:216   */\n  mstore\n    /* \"#utility.yul\":235:239   */\n  0x11\n    /* \"#utility.yul\":232:233   */\n  0x04\n    /* \"#utility.yul\":225:240   */\n  mstore\n    /* \"#utility.yul\":259:263   */\n  0x24\n    /* \"#utility.yul\":256:257   */\n  0x00\n    /* \"#utility.yul\":249:264   */\n  revert\n    /* \"#utility.yul\":276:467   */\ntag_5:\n    /* \"#utility.yul\":316:319   */\n  0x00\n    /* \"#utility.yul\":335:355   */\n  tag_13\n    /* \"#utility.yul\":353:354   */\n  dup3\n    /* \"#utility.yul\":335:355   */\n  tag_7\n  jump\t// in\ntag_13:\n    /* \"#utility.yul\":330:355   */\n  swap2\n  pop\n    /* \"#utility.yul\":369:389   */\n  tag_14\n    /* \"#utility.yul\":387:388   */\n  dup4\n    /* \"#utility.yul\":369:389   */\n  tag_7\n  jump\t// in\ntag_14:\n    /* \"#utility.yul\":364:389   */\n  swap3\n  pop\n    /* \"#utility.yul\":412:413   */\n  dup3\n    /* \"#utility.yul\":409:410   */\n  dup3\n    /* \"#utility.yul\":405:414   */\n  add\n    /* \"#utility.yul\":398:414   */\n  swap1\n  pop\n    /* \"#utility.yul\":433:436   */\n  dup1\n    /* \"#utility.yul\":430:431   */\n  dup3\n    /* \"#utility.yul\":427:437   */\n  gt\n    /* \"#utility.yul\":424:460   */\n  iszero\n  tag_15\n  jumpi\n    /* \"#utility.yul\":440:458   */\n  tag_16\n  tag_8\n  jump\t// in\ntag_16:\n    /* \"#utility.yul\":424:460   */\ntag_15:\n    /* \"#utility.yul\":276:467   */\n  swap3\n  swap2\n  pop\n  pop\n  jump\t// out\n    /* \"Bid.sol\":391:2336  contract Challenge {... */\ntag_6:\n  dataSize(sub_0)\n  dup1\n  dataOffset(sub_0)\n  0x00\n  codecopy\n  0x00\n  return\nstop\n\nsub_0: assembly {\n        /* \"Bid.sol\":391:2336  contract Challenge {... */\n      mstore(0x40, 0x80)\n      jumpi(tag_1, lt(calldatasize, 0x04))\n      shr(0xe0, calldataload(0x00))\n      dup1\n      0x22e67e71\n      eq\n      tag_2\n      jumpi\n      dup1\n      0x281b971a\n      eq\n      tag_3\n      jumpi\n      dup1\n      0x5d1a6514\n      eq\n      tag_4\n      jumpi\n      dup1\n      0x618c7e18\n      eq\n      tag_5\n      jumpi\n      dup1\n      0x6e6452cb\n      eq\n      tag_6\n      jumpi\n      dup1\n      0x8da5cb5b\n      eq\n      tag_7\n      jumpi\n    tag_1:\n      0x00\n      dup1\n      revert\n        /* \"Bid.sol\":548:567  uint public maxTime */\n    tag_2:\n      callvalue\n      dup1\n      iszero\n      tag_8\n      jumpi\n      0x00\n      dup1\n      revert\n    tag_8:\n      pop\n      tag_9\n      tag_10\n      jump\t// in\n    tag_9:\n      mload(0x40)\n      tag_11\n      swap2\n      swap1\n      tag_12\n      jump\t// in\n    tag_11:\n      mload(0x40)\n      dup1\n      swap2\n      sub\n      swap1\n      return\n        /* \"Bid.sol\":2162:2331  function restartBid() public onlyOwner restart {... */\n    tag_3:\n      callvalue\n      dup1\n      iszero\n      tag_13\n      jumpi\n      0x00\n      dup1\n      revert\n    tag_13:\n      pop\n      tag_14\n      tag_15\n      jump\t// in\n    tag_14:\n      stop\n        /* \"Bid.sol\":1020:1040  HighBidder public hb */\n    tag_4:\n      callvalue\n      dup1\n      iszero\n      tag_16\n      jumpi\n      0x00\n      dup1\n      revert\n    tag_16:\n      pop\n      tag_17\n      tag_18\n      jump\t// in\n    tag_17:\n      mload(0x40)\n      tag_19\n      swap3\n      swap2\n      swap1\n      tag_20\n      jump\t// in\n    tag_19:\n      mload(0x40)\n      dup1\n      swap2\n      sub\n      swap1\n      return\n        /* \"Bid.sol\":1750:2154  function Tranferfunds() external payable onlyOwner{... */\n    tag_5:\n      tag_21\n      tag_22\n      jump\t// in\n    tag_21:\n      stop\n        /* \"Bid.sol\":1187:1742  function Bid() public payable {... */\n    tag_6:\n      tag_23\n      tag_24\n      jump\t// in\n    tag_23:\n      stop\n        /* \"Bid.sol\":667:687  address public owner */\n    tag_7:\n      callvalue\n      dup1\n      iszero\n      tag_25\n      jumpi\n      0x00\n      dup1\n      revert\n    tag_25:\n      pop\n      tag_26\n      tag_27\n      jump\t// in\n    tag_26:\n      mload(0x40)\n      tag_28\n      swap2\n      swap1\n      tag_29\n      jump\t// in\n    tag_28:\n      mload(0x40)\n      dup1\n      swap2\n      sub\n      swap1\n      return\n        /* \"Bid.sol\":548:567  uint public maxTime */\n    tag_10:\n      sload(0x01)\n      dup2\n      jump\t// out\n        /* \"Bid.sol\":2162:2331  function restartBid() public onlyOwner restart {... */\n    tag_15:\n        /* \"Bid.sol\":858:863  owner */\n      0x02\n      0x00\n      swap1\n      sload\n      swap1\n      0x0100\n      exp\n      swap1\n      div\n      0xffffffffffffffffffffffffffffffffffffffff\n      and\n        /* \"Bid.sol\":844:863  msg.sender == owner */\n      0xffffffffffffffffffffffffffffffffffffffff\n      and\n        /* \"Bid.sol\":844:854  msg.sender */\n      caller\n        /* \"Bid.sol\":844:863  msg.sender == owner */\n      0xffffffffffffffffffffffffffffffffffffffff\n      and\n      eq\n        /* \"Bid.sol\":836:864  require(msg.sender == owner) */\n      tag_31\n      jumpi\n      0x00\n      dup1\n      revert\n    tag_31:\n        /* \"Bid.sol\":950:957  maxTime */\n      sload(0x01)\n        /* \"Bid.sol\":932:947  block.timestamp */\n      timestamp\n        /* \"Bid.sol\":932:957  block.timestamp > maxTime */\n      gt\n        /* \"Bid.sol\":924:990  require(block.timestamp > maxTime, \"Esperando finalizar o leilao\") */\n      tag_33\n      jumpi\n      mload(0x40)\n      0x08c379a000000000000000000000000000000000000000000000000000000000\n      dup2\n      mstore\n      0x04\n      add\n      tag_34\n      swap1\n      tag_35\n      jump\t// in\n    tag_34:\n      mload(0x40)\n      dup1\n      swap2\n      sub\n      swap1\n      revert\n    tag_33:\n        /* \"Bid.sol\":2253:2254  0 */\n      0x00\n        /* \"Bid.sol\":2228:2249  address(this).balance */\n      selfbalance\n        /* \"Bid.sol\":2228:2254  address(this).balance == 0 */\n      eq\n        /* \"Bid.sol\":2220:2255  require(address(this).balance == 0) */\n      tag_37\n      jumpi\n      0x00\n      dup1\n      revert\n    tag_37:\n        /* \"Bid.sol\":2273:2275  hb */\n      0x03\n      0x00\n        /* \"Bid.sol\":2266:2275  delete hb */\n      dup1\n      dup3\n      add\n      exp(0x0100, 0x00)\n      dup2\n      sload\n      swap1\n      0xffffffffffffffffffffffffffffffffffffffff\n      mul\n      not\n      and\n      swap1\n      sstore\n      0x01\n      dup3\n      add\n      0x00\n      swap1\n      sstore\n      pop\n      pop\n        /* \"Bid.sol\":2314:2323  2 minutes */\n      0x78\n        /* \"Bid.sol\":2296:2311  block.timestamp */\n      timestamp\n        /* \"Bid.sol\":2296:2323  block.timestamp + 2 minutes */\n      tag_38\n      swap2\n      swap1\n      tag_39\n      jump\t// in\n    tag_38:\n        /* \"Bid.sol\":2286:2293  maxTime */\n      0x01\n        /* \"Bid.sol\":2286:2323  maxTime = block.timestamp + 2 minutes */\n      dup2\n      swap1\n      sstore\n      pop\n        /* \"Bid.sol\":2162:2331  function restartBid() public onlyOwner restart {... */\n      jump\t// out\n        /* \"Bid.sol\":1020:1040  HighBidder public hb */\n    tag_18:\n      0x03\n      dup1\n      0x00\n      add\n      0x00\n      swap1\n      sload\n      swap1\n      0x0100\n      exp\n      swap1\n      div\n      0xffffffffffffffffffffffffffffffffffffffff\n      and\n      swap1\n      dup1\n      0x01\n      add\n      sload\n      swap1\n      pop\n      dup3\n      jump\t// out\n        /* \"Bid.sol\":1750:2154  function Tranferfunds() external payable onlyOwner{... */\n    tag_22:\n        /* \"Bid.sol\":858:863  owner */\n      0x02\n      0x00\n      swap1\n      sload\n      swap1\n      0x0100\n      exp\n      swap1\n      div\n      0xffffffffffffffffffffffffffffffffffffffff\n      and\n        /* \"Bid.sol\":844:863  msg.sender == owner */\n      0xffffffffffffffffffffffffffffffffffffffff\n      and\n        /* \"Bid.sol\":844:854  msg.sender */\n      caller\n        /* \"Bid.sol\":844:863  msg.sender == owner */\n      0xffffffffffffffffffffffffffffffffffffffff\n      and\n      eq\n        /* \"Bid.sol\":836:864  require(msg.sender == owner) */\n      tag_41\n      jumpi\n      0x00\n      dup1\n      revert\n    tag_41:\n        /* \"Bid.sol\":1832:1839  maxTime */\n      sload(0x01)\n        /* \"Bid.sol\":1814:1829  block.timestamp */\n      timestamp\n        /* \"Bid.sol\":1814:1839  block.timestamp > maxTime */\n      gt\n        /* \"Bid.sol\":1811:2147  if(block.timestamp > maxTime) {... */\n      iszero\n      tag_43\n      jumpi\n        /* \"Bid.sol\":1864:1866  hb */\n      0x03\n        /* \"Bid.sol\":1864:1878  hb.addressHigh */\n      0x00\n      add\n      0x00\n      swap1\n      sload\n      swap1\n      0x0100\n      exp\n      swap1\n      div\n      0xffffffffffffffffffffffffffffffffffffffff\n      and\n        /* \"Bid.sol\":1856:1888  payable(hb.addressHigh).transfer */\n      0xffffffffffffffffffffffffffffffffffffffff\n      and\n        /* \"Bid.sol\":1856:1911  payable(hb.addressHigh).transfer(address(this).balance) */\n      0x08fc\n        /* \"Bid.sol\":1889:1910  address(this).balance */\n      selfbalance\n        /* \"Bid.sol\":1856:1911  payable(hb.addressHigh).transfer(address(this).balance) */\n      swap1\n      dup2\n      iszero\n      mul\n      swap1\n      mload(0x40)\n      0x00\n      mload(0x40)\n      dup1\n      dup4\n      sub\n      dup2\n      dup6\n      dup9\n      dup9\n      call\n      swap4\n      pop\n      pop\n      pop\n      pop\n      iszero\n      dup1\n      iszero\n      tag_45\n      jumpi\n      returndatasize\n      0x00\n      dup1\n      returndatacopy\n      revert(0x00, returndatasize)\n    tag_45:\n      pop\n        /* \"Bid.sol\":1931:1975  auctionEnding(hb.addressHigh, hb.amountHigh) */\n      0x7089984aa249d7b6f692b0e3f6e2bf9c6c352c3b6a7032938108fd3fbe5d1d72\n        /* \"Bid.sol\":1945:1947  hb */\n      0x03\n        /* \"Bid.sol\":1945:1959  hb.addressHigh */\n      0x00\n      add\n      0x00\n      swap1\n      sload\n      swap1\n      0x0100\n      exp\n      swap1\n      div\n      0xffffffffffffffffffffffffffffffffffffffff\n      and\n        /* \"Bid.sol\":1961:1963  hb */\n      0x03\n        /* \"Bid.sol\":1961:1974  hb.amountHigh */\n      0x01\n      add\n      sload\n        /* \"Bid.sol\":1931:1975  auctionEnding(hb.addressHigh, hb.amountHigh) */\n      mload(0x40)\n      tag_46\n      swap3\n      swap2\n      swap1\n      tag_20\n      jump\t// in\n    tag_46:\n      mload(0x40)\n      dup1\n      swap2\n      sub\n      swap1\n      log1\n        /* \"Bid.sol\":1811:2147  if(block.timestamp > maxTime) {... */\n      jump(tag_47)\n    tag_43:\n        /* \"Bid.sol\":2021:2022  0 */\n      0x00\n        /* \"Bid.sol\":1996:2017  address(this).balance */\n      selfbalance\n        /* \"Bid.sol\":1996:2022  address(this).balance == 0 */\n      sub\n        /* \"Bid.sol\":1993:2147  if(address(this).balance == 0) {... */\n      tag_48\n      jumpi\n        /* \"Bid.sol\":2039:2070  revert(\"Sem saldo do contrato\") */\n      mload(0x40)\n      0x08c379a000000000000000000000000000000000000000000000000000000000\n      dup2\n      mstore\n      0x04\n      add\n      tag_49\n      swap1\n      tag_50\n      jump\t// in\n    tag_49:\n      mload(0x40)\n      dup1\n      swap2\n      sub\n      swap1\n      revert\n        /* \"Bid.sol\":1993:2147  if(address(this).balance == 0) {... */\n    tag_48:\n        /* \"Bid.sol\":2103:2135  revert(\"O Leilao nao finalizou\") */\n      mload(0x40)\n      0x08c379a000000000000000000000000000000000000000000000000000000000\n      dup2\n      mstore\n      0x04\n      add\n      tag_52\n      swap1\n      tag_53\n      jump\t// in\n    tag_52:\n      mload(0x40)\n      dup1\n      swap2\n      sub\n      swap1\n      revert\n        /* \"Bid.sol\":1811:2147  if(block.timestamp > maxTime) {... */\n    tag_47:\n        /* \"Bid.sol\":1750:2154  function Tranferfunds() external payable onlyOwner{... */\n      jump\t// out\n        /* \"Bid.sol\":1187:1742  function Bid() public payable {... */\n    tag_24:\n        /* \"Bid.sol\":1249:1256  maxTime */\n      sload(0x01)\n        /* \"Bid.sol\":1231:1246  block.timestamp */\n      timestamp\n        /* \"Bid.sol\":1231:1256  block.timestamp < maxTime */\n      lt\n        /* \"Bid.sol\":1228:1735  if(block.timestamp < maxTime) {... */\n      iszero\n      tag_55\n      jumpi\n        /* \"Bid.sol\":1296:1305  msg.value */\n      callvalue\n        /* \"Bid.sol\":1273:1280  bidders */\n      0x00\n        /* \"Bid.sol\":1273:1292  bidders[msg.sender] */\n      dup1\n        /* \"Bid.sol\":1281:1291  msg.sender */\n      caller\n        /* \"Bid.sol\":1273:1292  bidders[msg.sender] */\n      0xffffffffffffffffffffffffffffffffffffffff\n      and\n      0xffffffffffffffffffffffffffffffffffffffff\n      and\n      dup2\n      mstore\n      0x20\n      add\n      swap1\n      dup2\n      mstore\n      0x20\n      add\n      0x00\n      keccak256\n      0x00\n        /* \"Bid.sol\":1273:1305  bidders[msg.sender] += msg.value */\n      dup3\n      dup3\n      sload\n      tag_56\n      swap2\n      swap1\n      tag_39\n      jump\t// in\n    tag_56:\n      swap3\n      pop\n      pop\n      dup2\n      swap1\n      sstore\n      pop\n        /* \"Bid.sol\":1339:1348  msg.value */\n      callvalue\n        /* \"Bid.sol\":1323:1325  hb */\n      0x03\n        /* \"Bid.sol\":1323:1336  hb.amountHigh */\n      0x01\n      add\n      sload\n        /* \"Bid.sol\":1323:1348  hb.amountHigh < msg.value */\n      lt\n        /* \"Bid.sol\":1320:1658  if(hb.amountHigh < msg.value) {... */\n      iszero\n      tag_57\n      jumpi\n        /* \"Bid.sol\":1377:1379  hb */\n      0x03\n        /* \"Bid.sol\":1377:1391  hb.addressHigh */\n      0x00\n      add\n      0x00\n      swap1\n      sload\n      swap1\n      0x0100\n      exp\n      swap1\n      div\n      0xffffffffffffffffffffffffffffffffffffffff\n      and\n        /* \"Bid.sol\":1369:1401  payable(hb.addressHigh).transfer */\n      0xffffffffffffffffffffffffffffffffffffffff\n      and\n        /* \"Bid.sol\":1369:1416  payable(hb.addressHigh).transfer(hb.amountHigh) */\n      0x08fc\n        /* \"Bid.sol\":1402:1404  hb */\n      0x03\n        /* \"Bid.sol\":1402:1415  hb.amountHigh */\n      0x01\n      add\n      sload\n        /* \"Bid.sol\":1369:1416  payable(hb.addressHigh).transfer(hb.amountHigh) */\n      swap1\n      dup2\n      iszero\n      mul\n      swap1\n      mload(0x40)\n      0x00\n      mload(0x40)\n      dup1\n      dup4\n      sub\n      dup2\n      dup6\n      dup9\n      dup9\n      call\n      swap4\n      pop\n      pop\n      pop\n      pop\n      iszero\n      dup1\n      iszero\n      tag_59\n      jumpi\n      returndatasize\n      0x00\n      dup1\n      returndatacopy\n      revert(0x00, returndatasize)\n    tag_59:\n      pop\n        /* \"Bid.sol\":1452:1462  msg.sender */\n      caller\n        /* \"Bid.sol\":1435:1437  hb */\n      0x03\n        /* \"Bid.sol\":1435:1449  hb.addressHigh */\n      0x00\n      add\n      0x00\n        /* \"Bid.sol\":1435:1462  hb.addressHigh = msg.sender */\n      0x0100\n      exp\n      dup2\n      sload\n      dup2\n      0xffffffffffffffffffffffffffffffffffffffff\n      mul\n      not\n      and\n      swap1\n      dup4\n      0xffffffffffffffffffffffffffffffffffffffff\n      and\n      mul\n      or\n      swap1\n      sstore\n      pop\n        /* \"Bid.sol\":1497:1506  msg.value */\n      callvalue\n        /* \"Bid.sol\":1481:1483  hb */\n      0x03\n        /* \"Bid.sol\":1481:1494  hb.amountHigh */\n      0x01\n      add\n        /* \"Bid.sol\":1481:1506  hb.amountHigh = msg.value */\n      dup2\n      swap1\n      sstore\n      pop\n        /* \"Bid.sol\":1530:1564  eventHigher(msg.sender, msg.value) */\n      0xc6f5a8cf4040a35aeddcbc82ce6561b2ee249a55a2978b2c86f52058a6d15d72\n        /* \"Bid.sol\":1542:1552  msg.sender */\n      caller\n        /* \"Bid.sol\":1554:1563  msg.value */\n      callvalue\n        /* \"Bid.sol\":1530:1564  eventHigher(msg.sender, msg.value) */\n      mload(0x40)\n      tag_60\n      swap3\n      swap2\n      swap1\n      tag_20\n      jump\t// in\n    tag_60:\n      mload(0x40)\n      dup1\n      swap2\n      sub\n      swap1\n      log1\n        /* \"Bid.sol\":1320:1658  if(hb.amountHigh < msg.value) {... */\n      jump(tag_61)\n    tag_57:\n        /* \"Bid.sol\":1605:1642  revert(\"Valor abaixo do lance atual\") */\n      mload(0x40)\n      0x08c379a000000000000000000000000000000000000000000000000000000000\n      dup2\n      mstore\n      0x04\n      add\n      tag_62\n      swap1\n      tag_63\n      jump\t// in\n    tag_62:\n      mload(0x40)\n      dup1\n      swap2\n      sub\n      swap1\n      revert\n        /* \"Bid.sol\":1320:1658  if(hb.amountHigh < msg.value) {... */\n    tag_61:\n        /* \"Bid.sol\":1228:1735  if(block.timestamp < maxTime) {... */\n      jump(tag_64)\n    tag_55:\n        /* \"Bid.sol\":1690:1723  revert(\"O Leilao foi finalizado\") */\n      mload(0x40)\n      0x08c379a000000000000000000000000000000000000000000000000000000000\n      dup2\n      mstore\n      0x04\n      add\n      tag_65\n      swap1\n      tag_66\n      jump\t// in\n    tag_65:\n      mload(0x40)\n      dup1\n      swap2\n      sub\n      swap1\n      revert\n        /* \"Bid.sol\":1228:1735  if(block.timestamp < maxTime) {... */\n    tag_64:\n        /* \"Bid.sol\":1187:1742  function Bid() public payable {... */\n      jump\t// out\n        /* \"Bid.sol\":667:687  address public owner */\n    tag_27:\n      0x02\n      0x00\n      swap1\n      sload\n      swap1\n      0x0100\n      exp\n      swap1\n      div\n      0xffffffffffffffffffffffffffffffffffffffff\n      and\n      dup2\n      jump\t// out\n        /* \"#utility.yul\":7:84   */\n    tag_67:\n        /* \"#utility.yul\":44:51   */\n      0x00\n        /* \"#utility.yul\":73:78   */\n      dup2\n        /* \"#utility.yul\":62:78   */\n      swap1\n      pop\n        /* \"#utility.yul\":7:84   */\n      swap2\n      swap1\n      pop\n      jump\t// out\n        /* \"#utility.yul\":90:208   */\n    tag_68:\n        /* \"#utility.yul\":177:201   */\n      tag_87\n        /* \"#utility.yul\":195:200   */\n      dup2\n        /* \"#utility.yul\":177:201   */\n      tag_67\n      jump\t// in\n    tag_87:\n        /* \"#utility.yul\":172:175   */\n      dup3\n        /* \"#utility.yul\":165:202   */\n      mstore\n        /* \"#utility.yul\":90:208   */\n      pop\n      pop\n      jump\t// out\n        /* \"#utility.yul\":214:436   */\n    tag_12:\n        /* \"#utility.yul\":307:311   */\n      0x00\n        /* \"#utility.yul\":345:347   */\n      0x20\n        /* \"#utility.yul\":334:343   */\n      dup3\n        /* \"#utility.yul\":330:348   */\n      add\n        /* \"#utility.yul\":322:348   */\n      swap1\n      pop\n        /* \"#utility.yul\":358:429   */\n      tag_89\n        /* \"#utility.yul\":426:427   */\n      0x00\n        /* \"#utility.yul\":415:424   */\n      dup4\n        /* \"#utility.yul\":411:428   */\n      add\n        /* \"#utility.yul\":402:408   */\n      dup5\n        /* \"#utility.yul\":358:429   */\n      tag_68\n      jump\t// in\n    tag_89:\n        /* \"#utility.yul\":214:436   */\n      swap3\n      swap2\n      pop\n      pop\n      jump\t// out\n        /* \"#utility.yul\":442:568   */\n    tag_69:\n        /* \"#utility.yul\":479:486   */\n      0x00\n        /* \"#utility.yul\":519:561   */\n      0xffffffffffffffffffffffffffffffffffffffff\n        /* \"#utility.yul\":512:517   */\n      dup3\n        /* \"#utility.yul\":508:562   */\n      and\n        /* \"#utility.yul\":497:562   */\n      swap1\n      pop\n        /* \"#utility.yul\":442:568   */\n      swap2\n      swap1\n      pop\n      jump\t// out\n        /* \"#utility.yul\":574:670   */\n    tag_70:\n        /* \"#utility.yul\":611:618   */\n      0x00\n        /* \"#utility.yul\":640:664   */\n      tag_92\n        /* \"#utility.yul\":658:663   */\n      dup3\n        /* \"#utility.yul\":640:664   */\n      tag_69\n      jump\t// in\n    tag_92:\n        /* \"#utility.yul\":629:664   */\n      swap1\n      pop\n        /* \"#utility.yul\":574:670   */\n      swap2\n      swap1\n      pop\n      jump\t// out\n        /* \"#utility.yul\":676:794   */\n    tag_71:\n        /* \"#utility.yul\":763:787   */\n      tag_94\n        /* \"#utility.yul\":781:786   */\n      dup2\n        /* \"#utility.yul\":763:787   */\n      tag_70\n      jump\t// in\n    tag_94:\n        /* \"#utility.yul\":758:761   */\n      dup3\n        /* \"#utility.yul\":751:788   */\n      mstore\n        /* \"#utility.yul\":676:794   */\n      pop\n      pop\n      jump\t// out\n        /* \"#utility.yul\":800:1132   */\n    tag_20:\n        /* \"#utility.yul\":921:925   */\n      0x00\n        /* \"#utility.yul\":959:961   */\n      0x40\n        /* \"#utility.yul\":948:957   */\n      dup3\n        /* \"#utility.yul\":944:962   */\n      add\n        /* \"#utility.yul\":936:962   */\n      swap1\n      pop\n        /* \"#utility.yul\":972:1043   */\n      tag_96\n        /* \"#utility.yul\":1040:1041   */\n      0x00\n        /* \"#utility.yul\":1029:1038   */\n      dup4\n        /* \"#utility.yul\":1025:1042   */\n      add\n        /* \"#utility.yul\":1016:1022   */\n      dup6\n        /* \"#utility.yul\":972:1043   */\n      tag_71\n      jump\t// in\n    tag_96:\n        /* \"#utility.yul\":1053:1125   */\n      tag_97\n        /* \"#utility.yul\":1121:1123   */\n      0x20\n        /* \"#utility.yul\":1110:1119   */\n      dup4\n        /* \"#utility.yul\":1106:1124   */\n      add\n        /* \"#utility.yul\":1097:1103   */\n      dup5\n        /* \"#utility.yul\":1053:1125   */\n      tag_68\n      jump\t// in\n    tag_97:\n        /* \"#utility.yul\":800:1132   */\n      swap4\n      swap3\n      pop\n      pop\n      pop\n      jump\t// out\n        /* \"#utility.yul\":1138:1360   */\n    tag_29:\n        /* \"#utility.yul\":1231:1235   */\n      0x00\n        /* \"#utility.yul\":1269:1271   */\n      0x20\n        /* \"#utility.yul\":1258:1267   */\n      dup3\n        /* \"#utility.yul\":1254:1272   */\n      add\n        /* \"#utility.yul\":1246:1272   */\n      swap1\n      pop\n        /* \"#utility.yul\":1282:1353   */\n      tag_99\n        /* \"#utility.yul\":1350:1351   */\n      0x00\n        /* \"#utility.yul\":1339:1348   */\n      dup4\n        /* \"#utility.yul\":1335:1352   */\n      add\n        /* \"#utility.yul\":1326:1332   */\n      dup5\n        /* \"#utility.yul\":1282:1353   */\n      tag_71\n      jump\t// in\n    tag_99:\n        /* \"#utility.yul\":1138:1360   */\n      swap3\n      swap2\n      pop\n      pop\n      jump\t// out\n        /* \"#utility.yul\":1366:1535   */\n    tag_72:\n        /* \"#utility.yul\":1450:1461   */\n      0x00\n        /* \"#utility.yul\":1484:1490   */\n      dup3\n        /* \"#utility.yul\":1479:1482   */\n      dup3\n        /* \"#utility.yul\":1472:1491   */\n      mstore\n        /* \"#utility.yul\":1524:1528   */\n      0x20\n        /* \"#utility.yul\":1519:1522   */\n      dup3\n        /* \"#utility.yul\":1515:1529   */\n      add\n        /* \"#utility.yul\":1500:1529   */\n      swap1\n      pop\n        /* \"#utility.yul\":1366:1535   */\n      swap3\n      swap2\n      pop\n      pop\n      jump\t// out\n        /* \"#utility.yul\":1541:1719   */\n    tag_73:\n        /* \"#utility.yul\":1681:1711   */\n      0x4573706572616e646f2066696e616c697a6172206f206c65696c616f00000000\n        /* \"#utility.yul\":1677:1678   */\n      0x00\n        /* \"#utility.yul\":1669:1675   */\n      dup3\n        /* \"#utility.yul\":1665:1679   */\n      add\n        /* \"#utility.yul\":1658:1712   */\n      mstore\n        /* \"#utility.yul\":1541:1719   */\n      pop\n      jump\t// out\n        /* \"#utility.yul\":1725:2091   */\n    tag_74:\n        /* \"#utility.yul\":1867:1870   */\n      0x00\n        /* \"#utility.yul\":1888:1955   */\n      tag_103\n        /* \"#utility.yul\":1952:1954   */\n      0x1c\n        /* \"#utility.yul\":1947:1950   */\n      dup4\n        /* \"#utility.yul\":1888:1955   */\n      tag_72\n      jump\t// in\n    tag_103:\n        /* \"#utility.yul\":1881:1955   */\n      swap2\n      pop\n        /* \"#utility.yul\":1964:2057   */\n      tag_104\n        /* \"#utility.yul\":2053:2056   */\n      dup3\n        /* \"#utility.yul\":1964:2057   */\n      tag_73\n      jump\t// in\n    tag_104:\n        /* \"#utility.yul\":2082:2084   */\n      0x20\n        /* \"#utility.yul\":2077:2080   */\n      dup3\n        /* \"#utility.yul\":2073:2085   */\n      add\n        /* \"#utility.yul\":2066:2085   */\n      swap1\n      pop\n        /* \"#utility.yul\":1725:2091   */\n      swap2\n      swap1\n      pop\n      jump\t// out\n        /* \"#utility.yul\":2097:2516   */\n    tag_35:\n        /* \"#utility.yul\":2263:2267   */\n      0x00\n        /* \"#utility.yul\":2301:2303   */\n      0x20\n        /* \"#utility.yul\":2290:2299   */\n      dup3\n        /* \"#utility.yul\":2286:2304   */\n      add\n        /* \"#utility.yul\":2278:2304   */\n      swap1\n      pop\n        /* \"#utility.yul\":2350:2359   */\n      dup2\n        /* \"#utility.yul\":2344:2348   */\n      dup2\n        /* \"#utility.yul\":2340:2360   */\n      sub\n        /* \"#utility.yul\":2336:2337   */\n      0x00\n        /* \"#utility.yul\":2325:2334   */\n      dup4\n        /* \"#utility.yul\":2321:2338   */\n      add\n        /* \"#utility.yul\":2314:2361   */\n      mstore\n        /* \"#utility.yul\":2378:2509   */\n      tag_106\n        /* \"#utility.yul\":2504:2508   */\n      dup2\n        /* \"#utility.yul\":2378:2509   */\n      tag_74\n      jump\t// in\n    tag_106:\n        /* \"#utility.yul\":2370:2509   */\n      swap1\n      pop\n        /* \"#utility.yul\":2097:2516   */\n      swap2\n      swap1\n      pop\n      jump\t// out\n        /* \"#utility.yul\":2522:2702   */\n    tag_75:\n        /* \"#utility.yul\":2570:2647   */\n      0x4e487b7100000000000000000000000000000000000000000000000000000000\n        /* \"#utility.yul\":2567:2568   */\n      0x00\n        /* \"#utility.yul\":2560:2648   */\n      mstore\n        /* \"#utility.yul\":2667:2671   */\n      0x11\n        /* \"#utility.yul\":2664:2665   */\n      0x04\n        /* \"#utility.yul\":2657:2672   */\n      mstore\n        /* \"#utility.yul\":2691:2695   */\n      0x24\n        /* \"#utility.yul\":2688:2689   */\n      0x00\n        /* \"#utility.yul\":2681:2696   */\n      revert\n        /* \"#utility.yul\":2708:2899   */\n    tag_39:\n        /* \"#utility.yul\":2748:2751   */\n      0x00\n        /* \"#utility.yul\":2767:2787   */\n      tag_109\n        /* \"#utility.yul\":2785:2786   */\n      dup3\n        /* \"#utility.yul\":2767:2787   */\n      tag_67\n      jump\t// in\n    tag_109:\n        /* \"#utility.yul\":2762:2787   */\n      swap2\n      pop\n        /* \"#utility.yul\":2801:2821   */\n      tag_110\n        /* \"#utility.yul\":2819:2820   */\n      dup4\n        /* \"#utility.yul\":2801:2821   */\n      tag_67\n      jump\t// in\n    tag_110:\n        /* \"#utility.yul\":2796:2821   */\n      swap3\n      pop\n        /* \"#utility.yul\":2844:2845   */\n      dup3\n        /* \"#utility.yul\":2841:2842   */\n      dup3\n        /* \"#utility.yul\":2837:2846   */\n      add\n        /* \"#utility.yul\":2830:2846   */\n      swap1\n      pop\n        /* \"#utility.yul\":2865:2868   */\n      dup1\n        /* \"#utility.yul\":2862:2863   */\n      dup3\n        /* \"#utility.yul\":2859:2869   */\n      gt\n        /* \"#utility.yul\":2856:2892   */\n      iszero\n      tag_111\n      jumpi\n        /* \"#utility.yul\":2872:2890   */\n      tag_112\n      tag_75\n      jump\t// in\n    tag_112:\n        /* \"#utility.yul\":2856:2892   */\n    tag_111:\n        /* \"#utility.yul\":2708:2899   */\n      swap3\n      swap2\n      pop\n      pop\n      jump\t// out\n        /* \"#utility.yul\":2905:3076   */\n    tag_76:\n        /* \"#utility.yul\":3045:3068   */\n      0x53656d2073616c646f20646f20636f6e747261746f0000000000000000000000\n        /* \"#utility.yul\":3041:3042   */\n      0x00\n        /* \"#utility.yul\":3033:3039   */\n      dup3\n        /* \"#utility.yul\":3029:3043   */\n      add\n        /* \"#utility.yul\":3022:3069   */\n      mstore\n        /* \"#utility.yul\":2905:3076   */\n      pop\n      jump\t// out\n        /* \"#utility.yul\":3082:3448   */\n    tag_77:\n        /* \"#utility.yul\":3224:3227   */\n      0x00\n        /* \"#utility.yul\":3245:3312   */\n      tag_115\n        /* \"#utility.yul\":3309:3311   */\n      0x15\n        /* \"#utility.yul\":3304:3307   */\n      dup4\n        /* \"#utility.yul\":3245:3312   */\n      tag_72\n      jump\t// in\n    tag_115:\n        /* \"#utility.yul\":3238:3312   */\n      swap2\n      pop\n        /* \"#utility.yul\":3321:3414   */\n      tag_116\n        /* \"#utility.yul\":3410:3413   */\n      dup3\n        /* \"#utility.yul\":3321:3414   */\n      tag_76\n      jump\t// in\n    tag_116:\n        /* \"#utility.yul\":3439:3441   */\n      0x20\n        /* \"#utility.yul\":3434:3437   */\n      dup3\n        /* \"#utility.yul\":3430:3442   */\n      add\n        /* \"#utility.yul\":3423:3442   */\n      swap1\n      pop\n        /* \"#utility.yul\":3082:3448   */\n      swap2\n      swap1\n      pop\n      jump\t// out\n        /* \"#utility.yul\":3454:3873   */\n    tag_50:\n        /* \"#utility.yul\":3620:3624   */\n      0x00\n        /* \"#utility.yul\":3658:3660   */\n      0x20\n        /* \"#utility.yul\":3647:3656   */\n      dup3\n        /* \"#utility.yul\":3643:3661   */\n      add\n        /* \"#utility.yul\":3635:3661   */\n      swap1\n      pop\n        /* \"#utility.yul\":3707:3716   */\n      dup2\n        /* \"#utility.yul\":3701:3705   */\n      dup2\n        /* \"#utility.yul\":3697:3717   */\n      sub\n        /* \"#utility.yul\":3693:3694   */\n      0x00\n        /* \"#utility.yul\":3682:3691   */\n      dup4\n        /* \"#utility.yul\":3678:3695   */\n      add\n        /* \"#utility.yul\":3671:3718   */\n      mstore\n        /* \"#utility.yul\":3735:3866   */\n      tag_118\n        /* \"#utility.yul\":3861:3865   */\n      dup2\n        /* \"#utility.yul\":3735:3866   */\n      tag_77\n      jump\t// in\n    tag_118:\n        /* \"#utility.yul\":3727:3866   */\n      swap1\n      pop\n        /* \"#utility.yul\":3454:3873   */\n      swap2\n      swap1\n      pop\n      jump\t// out\n        /* \"#utility.yul\":3879:4051   */\n    tag_78:\n        /* \"#utility.yul\":4019:4043   */\n      0x4f204c65696c616f206e616f2066696e616c697a6f7500000000000000000000\n        /* \"#utility.yul\":4015:4016   */\n      0x00\n        /* \"#utility.yul\":4007:4013   */\n      dup3\n        /* \"#utility.yul\":4003:4017   */\n      add\n        /* \"#utility.yul\":3996:4044   */\n      mstore\n        /* \"#utility.yul\":3879:4051   */\n      pop\n      jump\t// out\n        /* \"#utility.yul\":4057:4423   */\n    tag_79:\n        /* \"#utility.yul\":4199:4202   */\n      0x00\n        /* \"#utility.yul\":4220:4287   */\n      tag_121\n        /* \"#utility.yul\":4284:4286   */\n      0x16\n        /* \"#utility.yul\":4279:4282   */\n      dup4\n        /* \"#utility.yul\":4220:4287   */\n      tag_72\n      jump\t// in\n    tag_121:\n        /* \"#utility.yul\":4213:4287   */\n      swap2\n      pop\n        /* \"#utility.yul\":4296:4389   */\n      tag_122\n        /* \"#utility.yul\":4385:4388   */\n      dup3\n        /* \"#utility.yul\":4296:4389   */\n      tag_78\n      jump\t// in\n    tag_122:\n        /* \"#utility.yul\":4414:4416   */\n      0x20\n        /* \"#utility.yul\":4409:4412   */\n      dup3\n        /* \"#utility.yul\":4405:4417   */\n      add\n        /* \"#utility.yul\":4398:4417   */\n      swap1\n      pop\n        /* \"#utility.yul\":4057:4423   */\n      swap2\n      swap1\n      pop\n      jump\t// out\n        /* \"#utility.yul\":4429:4848   */\n    tag_53:\n        /* \"#utility.yul\":4595:4599   */\n      0x00\n        /* \"#utility.yul\":4633:4635   */\n      0x20\n        /* \"#utility.yul\":4622:4631   */\n      dup3\n        /* \"#utility.yul\":4618:4636   */\n      add\n        /* \"#utility.yul\":4610:4636   */\n      swap1\n      pop\n        /* \"#utility.yul\":4682:4691   */\n      dup2\n        /* \"#utility.yul\":4676:4680   */\n      dup2\n        /* \"#utility.yul\":4672:4692   */\n      sub\n        /* \"#utility.yul\":4668:4669   */\n      0x00\n        /* \"#utility.yul\":4657:4666   */\n      dup4\n        /* \"#utility.yul\":4653:4670   */\n      add\n        /* \"#utility.yul\":4646:4693   */\n      mstore\n        /* \"#utility.yul\":4710:4841   */\n      tag_124\n        /* \"#utility.yul\":4836:4840   */\n      dup2\n        /* \"#utility.yul\":4710:4841   */\n      tag_79\n      jump\t// in\n    tag_124:\n        /* \"#utility.yul\":4702:4841   */\n      swap1\n      pop\n        /* \"#utility.yul\":4429:4848   */\n      swap2\n      swap1\n      pop\n      jump\t// out\n        /* \"#utility.yul\":4854:5031   */\n    tag_80:\n        /* \"#utility.yul\":4994:5023   */\n      0x56616c6f722061626169786f20646f206c616e636520617475616c0000000000\n        /* \"#utility.yul\":4990:4991   */\n      0x00\n        /* \"#utility.yul\":4982:4988   */\n      dup3\n        /* \"#utility.yul\":4978:4992   */\n      add\n        /* \"#utility.yul\":4971:5024   */\n      mstore\n        /* \"#utility.yul\":4854:5031   */\n      pop\n      jump\t// out\n        /* \"#utility.yul\":5037:5403   */\n    tag_81:\n        /* \"#utility.yul\":5179:5182   */\n      0x00\n        /* \"#utility.yul\":5200:5267   */\n      tag_127\n        /* \"#utility.yul\":5264:5266   */\n      0x1b\n        /* \"#utility.yul\":5259:5262   */\n      dup4\n        /* \"#utility.yul\":5200:5267   */\n      tag_72\n      jump\t// in\n    tag_127:\n        /* \"#utility.yul\":5193:5267   */\n      swap2\n      pop\n        /* \"#utility.yul\":5276:5369   */\n      tag_128\n        /* \"#utility.yul\":5365:5368   */\n      dup3\n        /* \"#utility.yul\":5276:5369   */\n      tag_80\n      jump\t// in\n    tag_128:\n        /* \"#utility.yul\":5394:5396   */\n      0x20\n        /* \"#utility.yul\":5389:5392   */\n      dup3\n        /* \"#utility.yul\":5385:5397   */\n      add\n        /* \"#utility.yul\":5378:5397   */\n      swap1\n      pop\n        /* \"#utility.yul\":5037:5403   */\n      swap2\n      swap1\n      pop\n      jump\t// out\n        /* \"#utility.yul\":5409:5828   */\n    tag_63:\n        /* \"#utility.yul\":5575:5579   */\n      0x00\n        /* \"#utility.yul\":5613:5615   */\n      0x20\n        /* \"#utility.yul\":5602:5611   */\n      dup3\n        /* \"#utility.yul\":5598:5616   */\n      add\n        /* \"#utility.yul\":5590:5616   */\n      swap1\n      pop\n        /* \"#utility.yul\":5662:5671   */\n      dup2\n        /* \"#utility.yul\":5656:5660   */\n      dup2\n        /* \"#utility.yul\":5652:5672   */\n      sub\n        /* \"#utility.yul\":5648:5649   */\n      0x00\n        /* \"#utility.yul\":5637:5646   */\n      dup4\n        /* \"#utility.yul\":5633:5650   */\n      add\n        /* \"#utility.yul\":5626:5673   */\n      mstore\n        /* \"#utility.yul\":5690:5821   */\n      tag_130\n        /* \"#utility.yul\":5816:5820   */\n      dup2\n        /* \"#utility.yul\":5690:5821   */\n      tag_81\n      jump\t// in\n    tag_130:\n        /* \"#utility.yul\":5682:5821   */\n      swap1\n      pop\n        /* \"#utility.yul\":5409:5828   */\n      swap2\n      swap1\n      pop\n      jump\t// out\n        /* \"#utility.yul\":5834:6007   */\n    tag_82:\n        /* \"#utility.yul\":5974:5999   */\n      0x4f204c65696c616f20666f692066696e616c697a61646f000000000000000000\n        /* \"#utility.yul\":5970:5971   */\n      0x00\n        /* \"#utility.yul\":5962:5968   */\n      dup3\n        /* \"#utility.yul\":5958:5972   */\n      add\n        /* \"#utility.yul\":5951:6000   */\n      mstore\n        /* \"#utility.yul\":5834:6007   */\n      pop\n      jump\t// out\n        /* \"#utility.yul\":6013:6379   */\n    tag_83:\n        /* \"#utility.yul\":6155:6158   */\n      0x00\n        /* \"#utility.yul\":6176:6243   */\n      tag_133\n        /* \"#utility.yul\":6240:6242   */\n      0x17\n        /* \"#utility.yul\":6235:6238   */\n      dup4\n        /* \"#utility.yul\":6176:6243   */\n      tag_72\n      jump\t// in\n    tag_133:\n        /* \"#utility.yul\":6169:6243   */\n      swap2\n      pop\n        /* \"#utility.yul\":6252:6345   */\n      tag_134\n        /* \"#utility.yul\":6341:6344   */\n      dup3\n        /* \"#utility.yul\":6252:6345   */\n      tag_82\n      jump\t// in\n    tag_134:\n        /* \"#utility.yul\":6370:6372   */\n      0x20\n        /* \"#utility.yul\":6365:6368   */\n      dup3\n        /* \"#utility.yul\":6361:6373   */\n      add\n        /* \"#utility.yul\":6354:6373   */\n      swap1\n      pop\n        /* \"#utility.yul\":6013:6379   */\n      swap2\n      swap1\n      pop\n      jump\t// out\n        /* \"#utility.yul\":6385:6804   */\n    tag_66:\n        /* \"#utility.yul\":6551:6555   */\n      0x00\n        /* \"#utility.yul\":6589:6591   */\n      0x20\n        /* \"#utility.yul\":6578:6587   */\n      dup3\n        /* \"#utility.yul\":6574:6592   */\n      add\n        /* \"#utility.yul\":6566:6592   */\n      swap1\n      pop\n        /* \"#utility.yul\":6638:6647   */\n      dup2\n        /* \"#utility.yul\":6632:6636   */\n      dup2\n        /* \"#utility.yul\":6628:6648   */\n      sub\n        /* \"#utility.yul\":6624:6625   */\n      0x00\n        /* \"#utility.yul\":6613:6622   */\n      dup4\n        /* \"#utility.yul\":6609:6626   */\n      add\n        /* \"#utility.yul\":6602:6649   */\n      mstore\n        /* \"#utility.yul\":6666:6797   */\n      tag_136\n        /* \"#utility.yul\":6792:6796   */\n      dup2\n        /* \"#utility.yul\":6666:6797   */\n      tag_83\n      jump\t// in\n    tag_136:\n        /* \"#utility.yul\":6658:6797   */\n      swap1\n      pop\n        /* \"#utility.yul\":6385:6804   */\n      swap2\n      swap1\n      pop\n      jump\t// out\n\n    auxdata: 0xa2646970667358221220e189856ee3de24aa0b06efa4b9a8bfb58ef0c20775e523c799e85fd8f19ec78764736f6c63430008180033\n}\n","bytecode":{"linkReferences":{},"object":"608060405234801561000f575f80fd5b5060784261001d919061009e565b6001819055503360025f6101000a81548173ffffffffffffffffffffffffffffffffffffffff021916908373ffffffffffffffffffffffffffffffffffffffff1602179055506100d1565b5f819050919050565b7f4e487b71000000000000000000000000000000000000000000000000000000005f52601160045260245ffd5b5f6100a882610068565b91506100b383610068565b92508282019050808211156100cb576100ca610071565b5b92915050565b610931806100de5f395ff3fe608060405260043610610054575f3560e01c806322e67e7114610058578063281b971a146100825780635d1a651414610098578063618c7e18146100c35780636e6452cb146100cd5780638da5cb5b146100d7575b5f80fd5b348015610063575f80fd5b5061006c610101565b60405161007991906105eb565b60405180910390f35b34801561008d575f80fd5b50610096610107565b005b3480156100a3575f80fd5b506100ac6101f4565b6040516100ba929190610643565b60405180910390f35b6100cb610224565b005b6100d56103d2565b005b3480156100e2575f80fd5b506100eb6105ae565b6040516100f8919061066a565b60405180910390f35b60015481565b60025f9054906101000a900473ffffffffffffffffffffffffffffffffffffffff1673ffffffffffffffffffffffffffffffffffffffff163373ffffffffffffffffffffffffffffffffffffffff161461015f575f80fd5b60015442116101a3576040517f08c379a000000000000000000000000000000000000000000000000000000000815260040161019a906106dd565b60405180910390fd5b5f47146101ae575f80fd5b60035f8082015f6101000a81549073ffffffffffffffffffffffffffffffffffffffff0219169055600182015f905550506078426101ec9190610728565b600181905550565b6003805f015f9054906101000a900473ffffffffffffffffffffffffffffffffffffffff16908060010154905082565b60025f9054906101000a900473ffffffffffffffffffffffffffffffffffffffff1673ffffffffffffffffffffffffffffffffffffffff163373ffffffffffffffffffffffffffffffffffffffff161461027c575f80fd5b6001544211156103535760035f015f9054906101000a900473ffffffffffffffffffffffffffffffffffffffff1673ffffffffffffffffffffffffffffffffffffffff166108fc4790811502906040515f60405180830381858888f193505050501580156102ec573d5f803e3d5ffd5b507f7089984aa249d7b6f692b0e3f6e2bf9c6c352c3b6a7032938108fd3fbe5d1d7260035f015f9054906101000a900473ffffffffffffffffffffffffffffffffffffffff16600360010154604051610346929190610643565b60405180910390a16103d0565b5f4703610395576040517f08c379a000000000000000000000000000000000000000000000000000000000815260040161038c906107a5565b60405180910390fd5b6040517f08c379a00000000000000000000000000000000000000000000000000000000081526004016103c79061080d565b60405180910390fd5b565b60015442101561057157345f803373ffffffffffffffffffffffffffffffffffffffff1673ffffffffffffffffffffffffffffffffffffffff1681526020019081526020015f205f8282546104279190610728565b925050819055503460036001015410156105315760035f015f9054906101000a900473ffffffffffffffffffffffffffffffffffffffff1673ffffffffffffffffffffffffffffffffffffffff166108fc60036001015490811502906040515f60405180830381858888f193505050501580156104a6573d5f803e3d5ffd5b503360035f015f6101000a81548173ffffffffffffffffffffffffffffffffffffffff021916908373ffffffffffffffffffffffffffffffffffffffff160217905550346003600101819055507fc6f5a8cf4040a35aeddcbc82ce6561b2ee249a55a2978b2c86f52058a6d15d723334604051610524929190610643565b60405180910390a161056c565b6040517f08c379a000000000000000000000000000000000000000000000000000000000815260040161056390610875565b60405180910390fd5b6105ac565b6040517f08c379a00000000000000000000000000000000000000000000000000000000081526004016105a3906108dd565b60405180910390fd5b565b60025f9054906101000a900473ffffffffffffffffffffffffffffffffffffffff1681565b5f819050919050565b6105e5816105d3565b82525050565b5f6020820190506105fe5f8301846105dc565b92915050565b5f73ffffffffffffffffffffffffffffffffffffffff82169050919050565b5f61062d82610604565b9050919050565b61063d81610623565b82525050565b5f6040820190506106565f830185610634565b61066360208301846105dc565b9392505050565b5f60208201905061067d5f830184610634565b92915050565b5f82825260208201905092915050565b7f4573706572616e646f2066696e616c697a6172206f206c65696c616f000000005f82015250565b5f6106c7601c83610683565b91506106d282610693565b602082019050919050565b5f6020820190508181035f8301526106f4816106bb565b9050919050565b7f4e487b71000000000000000000000000000000000000000000000000000000005f52601160045260245ffd5b5f610732826105d3565b915061073d836105d3565b9250828201905080821115610755576107546106fb565b5b92915050565b7f53656d2073616c646f20646f20636f6e747261746f00000000000000000000005f82015250565b5f61078f601583610683565b915061079a8261075b565b602082019050919050565b5f6020820190508181035f8301526107bc81610783565b9050919050565b7f4f204c65696c616f206e616f2066696e616c697a6f75000000000000000000005f82015250565b5f6107f7601683610683565b9150610802826107c3565b602082019050919050565b5f6020820190508181035f830152610824816107eb565b9050919050565b7f56616c6f722061626169786f20646f206c616e636520617475616c00000000005f82015250565b5f61085f601b83610683565b915061086a8261082b565b602082019050919050565b5f6020820190508181035f83015261088c81610853565b9050919050565b7f4f204c65696c616f20666f692066696e616c697a61646f0000000000000000005f82015250565b5f6108c7601783610683565b91506108d282610893565b602082019050919050565b5f6020820190508181035f8301526108f4816108bb565b905091905056fea2646970667358221220e189856ee3de24aa0b06efa4b9a8bfb58ef0c20775e523c799e85fd8f19ec78764736f6c63430008180033","opcodes":"PUSH1 0x80 PUSH1 0x40 MSTORE CALLVALUE DUP1 ISZERO PUSH2 0xF JUMPI PUSH0 DUP1 REVERT JUMPDEST POP PUSH1 0x78 TIMESTAMP PUSH2 0x1D SWAP2 SWAP1 PUSH2 0x9E JUMP JUMPDEST PUSH1 0x1 DUP2 SWAP1 SSTORE POP CALLER PUSH1 0x2 PUSH0 PUSH2 0x100 EXP DUP2 SLOAD DUP2 PUSH20 0xFFFFFFFFFFFFFFFFFFFFFFFFFFFFFFFFFFFFFFFF MUL NOT AND SWAP1 DUP4 PUSH20 0xFFFFFFFFFFFFFFFFFFFFFFFFFFFFFFFFFFFFFFFF AND MUL OR SWAP1 SSTORE POP PUSH2 0xD1 JUMP JUMPDEST PUSH0 DUP2 SWAP1 POP SWAP2 SWAP1 POP JUMP JUMPDEST PUSH32 0x4E487B7100000000000000000000000000000000000000000000000000000000 PUSH0 MSTORE PUSH1 0x11 PUSH1 0x4 MSTORE PUSH1 0x24 PUSH0 REVERT JUMPDEST PUSH0 PUSH2 0xA8 DUP3 PUSH2 0x68 JUMP JUMPDEST SWAP2 POP PUSH2 0xB3 DUP4 PUSH2 0x68 JUMP JUMPDEST SWAP3 POP DUP3 DUP3 ADD SWAP1 POP DUP1 DUP3 GT ISZERO PUSH2 0xCB JUMPI PUSH2 0xCA PUSH2 0x71 JUMP JUMPDEST JUMPDEST SWAP3 SWAP2 POP POP JUMP JUMPDEST PUSH2 0x931 DUP1 PUSH2 0xDE PUSH0 CODECOPY PUSH0 RETURN INVALID PUSH1 0x80 PUSH1 0x40 MSTORE PUSH1 0x4 CALLDATASIZE LT PUSH2 0x54 JUMPI PUSH0 CALLDATALOAD PUSH1 0xE0 SHR DUP1 PUSH4 0x22E67E71 EQ PUSH2 0x58 JUMPI DUP1 PUSH4 0x281B971A EQ PUSH2 0x82 JUMPI DUP1 PUSH4 0x5D1A6514 EQ PUSH2 0x98 JUMPI DUP1 PUSH4 0x618C7E18 EQ PUSH2 0xC3 JUMPI DUP1 PUSH4 0x6E6452CB EQ PUSH2 0xCD JUMPI DUP1 PUSH4 0x8DA5CB5B EQ PUSH2 0xD7 JUMPI JUMPDEST PUSH0 DUP1 REVERT JUMPDEST CALLVALUE DUP1 ISZERO PUSH2 0x63 JUMPI PUSH0 DUP1 REVERT JUMPDEST POP PUSH2 0x6C PUSH2 0x101 JUMP JUMPDEST PUSH1 0x40 MLOAD PUSH2 0x79 SWAP2 SWAP1 PUSH2 0x5EB JUMP JUMPDEST PUSH1 0x40 MLOAD DUP1 SWAP2 SUB SWAP1 RETURN JUMPDEST CALLVALUE DUP1 ISZERO PUSH2 0x8D JUMPI PUSH0 DUP1 REVERT JUMPDEST POP PUSH2 0x96 PUSH2 0x107 JUMP JUMPDEST STOP JUMPDEST CALLVALUE DUP1 ISZERO PUSH2 0xA3 JUMPI PUSH0 DUP1 REVERT JUMPDEST POP PUSH2 0xAC PUSH2 0x1F4 JUMP JUMPDEST PUSH1 0x40 MLOAD PUSH2 0xBA SWAP3 SWAP2 SWAP1 PUSH2 0x643 JUMP JUMPDEST PUSH1 0x40 MLOAD DUP1 SWAP2 SUB SWAP1 RETURN JUMPDEST PUSH2 0xCB PUSH2 0x224 JUMP JUMPDEST STOP JUMPDEST PUSH2 0xD5 PUSH2 0x3D2 JUMP JUMPDEST STOP JUMPDEST CALLVALUE DUP1 ISZERO PUSH2 0xE2 JUMPI PUSH0 DUP1 REVERT JUMPDEST POP PUSH2 0xEB PUSH2 0x5AE JUMP JUMPDEST PUSH1 0x40 MLOAD PUSH2 0xF8 SWAP2 SWAP1 PUSH2 0x66A JUMP JUMPDEST PUSH1 0x40 MLOAD DUP1 SWAP2 SUB SWAP1 RETURN JUMPDEST PUSH1 0x1 SLOAD DUP2 JUMP JUMPDEST PUSH1 0x2 PUSH0 SWAP1 SLOAD SWAP1 PUSH2 0x100 EXP SWAP1 DIV PUSH20 0xFFFFFFFFFFFFFFFFFFFFFFFFFFFFFFFFFFFFFFFF AND PUSH20 0xFFFFFFFFFFFFFFFFFFFFFFFFFFFFFFFFFFFFFFFF AND CALLER PUSH20 0xFFFFFFFFFFFFFFFFFFFFFFFFFFFFFFFFFFFFFFFF AND EQ PUSH2 0x15F JUMPI PUSH0 DUP1 REVERT JUMPDEST PUSH1 0x1 SLOAD TIMESTAMP GT PUSH2 0x1A3 JUMPI PUSH1 0x40 MLOAD PUSH32 0x8C379A000000000000000000000000000000000000000000000000000000000 DUP2 MSTORE PUSH1 0x4 ADD PUSH2 0x19A SWAP1 PUSH2 0x6DD JUMP JUMPDEST PUSH1 0x40 MLOAD DUP1 SWAP2 SUB SWAP1 REVERT JUMPDEST PUSH0 SELFBALANCE EQ PUSH2 0x1AE JUMPI PUSH0 DUP1 REVERT JUMPDEST PUSH1 0x3 PUSH0 DUP1 DUP3 ADD PUSH0 PUSH2 0x100 EXP DUP2 SLOAD SWAP1 PUSH20 0xFFFFFFFFFFFFFFFFFFFFFFFFFFFFFFFFFFFFFFFF MUL NOT AND SWAP1 SSTORE PUSH1 0x1 DUP3 ADD PUSH0 SWAP1 SSTORE POP POP PUSH1 0x78 TIMESTAMP PUSH2 0x1EC SWAP2 SWAP1 PUSH2 0x728 JUMP JUMPDEST PUSH1 0x1 DUP2 SWAP1 SSTORE POP JUMP JUMPDEST PUSH1 0x3 DUP1 PUSH0 ADD PUSH0 SWAP1 SLOAD SWAP1 PUSH2 0x100 EXP SWAP1 DIV PUSH20 0xFFFFFFFFFFFFFFFFFFFFFFFFFFFFFFFFFFFFFFFF AND SWAP1 DUP1 PUSH1 0x1 ADD SLOAD SWAP1 POP DUP3 JUMP JUMPDEST PUSH1 0x2 PUSH0 SWAP1 SLOAD SWAP1 PUSH2 0x100 EXP SWAP1 DIV PUSH20 0xFFFFFFFFFFFFFFFFFFFFFFFFFFFFFFFFFFFFFFFF AND PUSH20 0xFFFFFFFFFFFFFFFFFFFFFFFFFFFFFFFFFFFFFFFF AND CALLER PUSH20 0xFFFFFFFFFFFFFFFFFFFFFFFFFFFFFFFFFFFFFFFF AND EQ PUSH2 0x27C JUMPI PUSH0 DUP1 REVERT JUMPDEST PUSH1 0x1 SLOAD TIMESTAMP GT ISZERO PUSH2 0x353 JUMPI PUSH1 0x3 PUSH0 ADD PUSH0 SWAP1 SLOAD SWAP1 PUSH2 0x100 EXP SWAP1 DIV PUSH20 0xFFFFFFFFFFFFFFFFFFFFFFFFFFFFFFFFFFFFFFFF AND PUSH20 0xFFFFFFFFFFFFFFFFFFFFFFFFFFFFFFFFFFFFFFFF AND PUSH2 0x8FC SELFBALANCE SWAP1 DUP2 ISZERO MUL SWAP1 PUSH1 0x40 MLOAD PUSH0 PUSH1 0x40 MLOAD DUP1 DUP4 SUB DUP2 DUP6 DUP9 DUP9 CALL SWAP4 POP POP POP POP ISZERO DUP1 ISZERO PUSH2 0x2EC JUMPI RETURNDATASIZE PUSH0 DUP1 RETURNDATACOPY RETURNDATASIZE PUSH0 REVERT JUMPDEST POP PUSH32 0x7089984AA249D7B6F692B0E3F6E2BF9C6C352C3B6A7032938108FD3FBE5D1D72 PUSH1 0x3 PUSH0 ADD PUSH0 SWAP1 SLOAD SWAP1 PUSH2 0x100 EXP SWAP1 DIV PUSH20 0xFFFFFFFFFFFFFFFFFFFFFFFFFFFFFFFFFFFFFFFF AND PUSH1 0x3 PUSH1 0x1 ADD SLOAD PUSH1 0x40 MLOAD PUSH2 0x346 SWAP3 SWAP2 SWAP1 PUSH2 0x643 JUMP JUMPDEST PUSH1 0x40 MLOAD DUP1 SWAP2 SUB SWAP1 LOG1 PUSH2 0x3D0 JUMP JUMPDEST PUSH0 SELFBALANCE SUB PUSH2 0x395 JUMPI PUSH1 0x40 MLOAD PUSH32 0x8C379A000000000000000000000000000000000000000000000000000000000 DUP2 MSTORE PUSH1 0x4 ADD PUSH2 0x38C SWAP1 PUSH2 0x7A5 JUMP JUMPDEST PUSH1 0x40 MLOAD DUP1 SWAP2 SUB SWAP1 REVERT JUMPDEST PUSH1 0x40 MLOAD PUSH32 0x8C379A000000000000000000000000000000000000000000000000000000000 DUP2 MSTORE PUSH1 0x4 ADD PUSH2 0x3C7 SWAP1 PUSH2 0x80D JUMP JUMPDEST PUSH1 0x40 MLOAD DUP1 SWAP2 SUB SWAP1 REVERT JUMPDEST JUMP JUMPDEST PUSH1 0x1 SLOAD TIMESTAMP LT ISZERO PUSH2 0x571 JUMPI CALLVALUE PUSH0 DUP1 CALLER PUSH20 0xFFFFFFFFFFFFFFFFFFFFFFFFFFFFFFFFFFFFFFFF AND PUSH20 0xFFFFFFFFFFFFFFFFFFFFFFFFFFFFFFFFFFFFFFFF AND DUP2 MSTORE PUSH1 0x20 ADD SWAP1 DUP2 MSTORE PUSH1 0x20 ADD PUSH0 KECCAK256 PUSH0 DUP3 DUP3 SLOAD PUSH2 0x427 SWAP2 SWAP1 PUSH2 0x728 JUMP JUMPDEST SWAP3 POP POP DUP2 SWAP1 SSTORE POP CALLVALUE PUSH1 0x3 PUSH1 0x1 ADD SLOAD LT ISZERO PUSH2 0x531 JUMPI PUSH1 0x3 PUSH0 ADD PUSH0 SWAP1 SLOAD SWAP1 PUSH2 0x100 EXP SWAP1 DIV PUSH20 0xFFFFFFFFFFFFFFFFFFFFFFFFFFFFFFFFFFFFFFFF AND PUSH20 0xFFFFFFFFFFFFFFFFFFFFFFFFFFFFFFFFFFFFFFFF AND PUSH2 0x8FC PUSH1 0x3 PUSH1 0x1 ADD SLOAD SWAP1 DUP2 ISZERO MUL SWAP1 PUSH1 0x40 MLOAD PUSH0 PUSH1 0x40 MLOAD DUP1 DUP4 SUB DUP2 DUP6 DUP9 DUP9 CALL SWAP4 POP POP POP POP ISZERO DUP1 ISZERO PUSH2 0x4A6 JUMPI RETURNDATASIZE PUSH0 DUP1 RETURNDATACOPY RETURNDATASIZE PUSH0 REVERT JUMPDEST POP CALLER PUSH1 0x3 PUSH0 ADD PUSH0 PUSH2 0x100 EXP DUP2 SLOAD DUP2 PUSH20 0xFFFFFFFFFFFFFFFFFFFFFFFFFFFFFFFFFFFFFFFF MUL NOT AND SWAP1 DUP4 PUSH20 0xFFFFFFFFFFFFFFFFFFFFFFFFFFFFFFFFFFFFFFFF AND MUL OR SWAP1 SSTORE POP CALLVALUE PUSH1 0x3 PUSH1 0x1 ADD DUP2 SWAP1 SSTORE POP PUSH32 0xC6F5A8CF4040A35AEDDCBC82CE6561B2EE249A55A2978B2C86F52058A6D15D72 CALLER CALLVALUE PUSH1 0x40 MLOAD PUSH2 0x524 SWAP3 SWAP2 SWAP1 PUSH2 0x643 JUMP JUMPDEST PUSH1 0x40 MLOAD DUP1 SWAP2 SUB SWAP1 LOG1 PUSH2 0x56C JUMP JUMPDEST PUSH1 0x40 MLOAD PUSH32 0x8C379A000000000000000000000000000000000000000000000000000000000 DUP2 MSTORE PUSH1 0x4 ADD PUSH2 0x563 SWAP1 PUSH2 0x875 JUMP JUMPDEST PUSH1 0x40 MLOAD DUP1 SWAP2 SUB SWAP1 REVERT JUMPDEST PUSH2 0x5AC JUMP JUMPDEST PUSH1 0x40 MLOAD PUSH32 0x8C379A000000000000000000000000000000000000000000000000000000000 DUP2 MSTORE PUSH1 0x4 ADD PUSH2 0x5A3 SWAP1 PUSH2 0x8DD JUMP JUMPDEST PUSH1 0x40 MLOAD DUP1 SWAP2 SUB SWAP1 REVERT JUMPDEST JUMP JUMPDEST PUSH1 0x2 PUSH0 SWAP1 SLOAD SWAP1 PUSH2 0x100 EXP SWAP1 DIV PUSH20 0xFFFFFFFFFFFFFFFFFFFFFFFFFFFFFFFFFFFFFFFF AND DUP2 JUMP JUMPDEST PUSH0 DUP2 SWAP1 POP SWAP2 SWAP1 POP JUMP JUMPDEST PUSH2 0x5E5 DUP2 PUSH2 0x5D3 JUMP JUMPDEST DUP3 MSTORE POP POP JUMP JUMPDEST PUSH0 PUSH1 0x20 DUP3 ADD SWAP1 POP PUSH2 0x5FE PUSH0 DUP4 ADD DUP5 PUSH2 0x5DC JUMP JUMPDEST SWAP3 SWAP2 POP POP JUMP JUMPDEST PUSH0 PUSH20 0xFFFFFFFFFFFFFFFFFFFFFFFFFFFFFFFFFFFFFFFF DUP3 AND SWAP1 POP SWAP2 SWAP1 POP JUMP JUMPDEST PUSH0 PUSH2 0x62D DUP3 PUSH2 0x604 JUMP JUMPDEST SWAP1 POP SWAP2 SWAP1 POP JUMP JUMPDEST PUSH2 0x63D DUP2 PUSH2 0x623 JUMP JUMPDEST DUP3 MSTORE POP POP JUMP JUMPDEST PUSH0 PUSH1 0x40 DUP3 ADD SWAP1 POP PUSH2 0x656 PUSH0 DUP4 ADD DUP6 PUSH2 0x634 JUMP JUMPDEST PUSH2 0x663 PUSH1 0x20 DUP4 ADD DUP5 PUSH2 0x5DC JUMP JUMPDEST SWAP4 SWAP3 POP POP POP JUMP JUMPDEST PUSH0 PUSH1 0x20 DUP3 ADD SWAP1 POP PUSH2 0x67D PUSH0 DUP4 ADD DUP5 PUSH2 0x634 JUMP JUMPDEST SWAP3 SWAP2 POP POP JUMP JUMPDEST PUSH0 DUP3 DUP3 MSTORE PUSH1 0x20 DUP3 ADD SWAP1 POP SWAP3 SWAP2 POP POP JUMP JUMPDEST PUSH32 0x4573706572616E646F2066696E616C697A6172206F206C65696C616F00000000 PUSH0 DUP3 ADD MSTORE POP JUMP JUMPDEST PUSH0 PUSH2 0x6C7 PUSH1 0x1C DUP4 PUSH2 0x683 JUMP JUMPDEST SWAP2 POP PUSH2 0x6D2 DUP3 PUSH2 0x693 JUMP JUMPDEST PUSH1 0x20 DUP3 ADD SWAP1 POP SWAP2 SWAP1 POP JUMP JUMPDEST PUSH0 PUSH1 0x20 DUP3 ADD SWAP1 POP DUP2 DUP2 SUB PUSH0 DUP4 ADD MSTORE PUSH2 0x6F4 DUP2 PUSH2 0x6BB JUMP JUMPDEST SWAP1 POP SWAP2 SWAP1 POP JUMP JUMPDEST PUSH32 0x4E487B7100000000000000000000000000000000000000000000000000000000 PUSH0 MSTORE PUSH1 0x11 PUSH1 0x4 MSTORE PUSH1 0x24 PUSH0 REVERT JUMPDEST PUSH0 PUSH2 0x732 DUP3 PUSH2 0x5D3 JUMP JUMPDEST SWAP2 POP PUSH2 0x73D DUP4 PUSH2 0x5D3 JUMP JUMPDEST SWAP3 POP DUP3 DUP3 ADD SWAP1 POP DUP1 DUP3 GT ISZERO PUSH2 0x755 JUMPI PUSH2 0x754 PUSH2 0x6FB JUMP JUMPDEST JUMPDEST SWAP3 SWAP2 POP POP JUMP JUMPDEST PUSH32 0x53656D2073616C646F20646F20636F6E747261746F0000000000000000000000 PUSH0 DUP3 ADD MSTORE POP JUMP JUMPDEST PUSH0 PUSH2 0x78F PUSH1 0x15 DUP4 PUSH2 0x683 JUMP JUMPDEST SWAP2 POP PUSH2 0x79A DUP3 PUSH2 0x75B JUMP JUMPDEST PUSH1 0x20 DUP3 ADD SWAP1 POP SWAP2 SWAP1 POP JUMP JUMPDEST PUSH0 PUSH1 0x20 DUP3 ADD SWAP1 POP DUP2 DUP2 SUB PUSH0 DUP4 ADD MSTORE PUSH2 0x7BC DUP2 PUSH2 0x783 JUMP JUMPDEST SWAP1 POP SWAP2 SWAP1 POP JUMP JUMPDEST PUSH32 0x4F204C65696C616F206E616F2066696E616C697A6F7500000000000000000000 PUSH0 DUP3 ADD MSTORE POP JUMP JUMPDEST PUSH0 PUSH2 0x7F7 PUSH1 0x16 DUP4 PUSH2 0x683 JUMP JUMPDEST SWAP2 POP PUSH2 0x802 DUP3 PUSH2 0x7C3 JUMP JUMPDEST PUSH1 0x20 DUP3 ADD SWAP1 POP SWAP2 SWAP1 POP JUMP JUMPDEST PUSH0 PUSH1 0x20 DUP3 ADD SWAP1 POP DUP2 DUP2 SUB PUSH0 DUP4 ADD MSTORE PUSH2 0x824 DUP2 PUSH2 0x7EB JUMP JUMPDEST SWAP1 POP SWAP2 SWAP1 POP JUMP JUMPDEST PUSH32 0x56616C6F722061626169786F20646F206C616E636520617475616C0000000000 PUSH0 DUP3 ADD MSTORE POP JUMP JUMPDEST PUSH0 PUSH2 0x85F PUSH1 0x1B DUP4 PUSH2 0x683 JUMP JUMPDEST SWAP2 POP PUSH2 0x86A DUP3 PUSH2 0x82B JUMP JUMPDEST PUSH1 0x20 DUP3 ADD SWAP1 POP SWAP2 SWAP1 POP JUMP JUMPDEST PUSH0 PUSH1 0x20 DUP3 ADD SWAP1 POP DUP2 DUP2 SUB PUSH0 DUP4 ADD MSTORE PUSH2 0x88C DUP2 PUSH2 0x853 JUMP JUMPDEST SWAP1 POP SWAP2 SWAP1 POP JUMP JUMPDEST PUSH32 0x4F204C65696C616F20666F692066696E616C697A61646F000000000000000000 PUSH0 DUP3 ADD MSTORE POP JUMP JUMPDEST PUSH0 PUSH2 0x8C7 PUSH1 0x17 DUP4 PUSH2 0x683 JUMP JUMPDEST SWAP2 POP PUSH2 0x8D2 DUP3 PUSH2 0x893 JUMP JUMPDEST PUSH1 0x20 DUP3 ADD SWAP1 POP SWAP2 SWAP1 POP JUMP JUMPDEST PUSH0 PUSH1 0x20 DUP3 ADD SWAP1 POP DUP2 DUP2 SUB PUSH0 DUP4 ADD MSTORE PUSH2 0x8F4 DUP2 PUSH2 0x8BB JUMP JUMPDEST SWAP1 POP SWAP2 SWAP1 POP JUMP INVALID LOG2 PUSH5 0x6970667358 0x22 SLT KECCAK256 0xE1 DUP10 DUP6 PUSH15 0xE3DE24AA0B06EFA4B9A8BFB58EF0C2 SMOD PUSH22 0xE523C799E85FD8F19EC78764736F6C63430008180033 "},"gasEstimates":{"creation":{"codeDepositCost":"470600","executionCost":"infinite","totalCost":"infinite"},"external":{"Bid()":"infinite","Tranferfunds()":"infinite","hb()":"4754","maxTime()":"2403","owner()":"2596","restartBid()":"infinite"}},"methodIdentifiers":{"Bid()":"6e6452cb","Tranferfunds()":"618c7e18","hb()":"5d1a6514","maxTime()":"22e67e71","owner()":"8da5cb5b","restartBid()":"281b971a"}},"storageLayout":{"storage":[{"astId":52,"contract":"Bid.sol:Challenge","label":"bidders","offset":0,"slot":"0","type":"t_mapping(t_address,t_uint256)"},{"astId":54,"contract":"Bid.sol:Challenge","label":"maxTime","offset":0,"slot":"1","type":"t_uint256"},{"astId":68,"contract":"Bid.sol:Challenge","label":"owner","offset":0,"slot":"2","type":"t_address"},{"astId":110,"contract":"Bid.sol:Challenge","label":"hb","offset":0,"slot":"3","type":"t_struct(HighBidder)48_storage"}],"types":{"t_address":{"encoding":"inplace","label":"address","numberOfBytes":"20"},"t_mapping(t_address,t_uint256)":{"encoding":"mapping","key":"t_address","label":"mapping(address => uint256)","numberOfBytes":"32","value":"t_uint256"},"t_struct(HighBidder)48_storage":{"encoding":"inplace","label":"struct Challenge.HighBidder","members":[{"astId":45,"contract":"Bid.sol:Challenge","label":"addressHigh","offset":0,"slot":"0","type":"t_address"},{"astId":47,"contract":"Bid.sol:Challenge","label":"amountHigh","offset":0,"slot":"1","type":"t_uint256"}],"numberOfBytes":"64"},"t_uint256":{"encoding":"inplace","label":"uint256","numberOfBytes":"32"}}},"userdoc":{"kind":"user","methods":{},"version":1}}